:100000000C9432000C9416020C943F020C9468027B
:100010000C9444000C9444000C9444000C94440050
:100020000C9444000C9444000C9491020C94BA0279
:100030000C9444000C9444000C9444000C94440030
:100040000C9444000C9444000C9444000C94440020
:100050000C944400780089008E00930098009D0065
:10006000A200A70011241FBECFE5D8E0DEBFCDBFA0
:1000700020E0A0E6B0E001C01D92AB36B207E1F788
:100080000E94BC000C94E9020C9400008091600076
:10009000873020F48F5F8093600008951092600095
:1000A000089560E081E40E94B00061E081E40E9474
:1000B000B00062E081E40E94B00063E081E40E944D
:1000C000B00062E084E40E94AC0086E490E00E940C
:1000D000110262E086E00E9401020895E091600052
:1000E000F0E0E830F105D0F7E65DFF4F0C94E30255
:1000F00060E081E40E94B80061E081E40E94B80001
:1001000062E081E40E94B80063E081E40E94B800EC
:10011000E5CF60E081E40E94B400E0CF61E081E4DB
:100120000E94B400DBCF62E081E40E94B400D6CF2D
:1001300063E081E40E94B400D1CF60E081E40E94DA
:10014000B800CCCF61E081E40E94B800C7CF62E084
:1001500081E40E94B800C2CF40E00E94C10008952F
:1001600041E00E94C100089541E00E9439010895D4
:1001700040E00E94390108950E9451000E946E00E3
:10018000FDCF823429F118F4813439F00895833495
:10019000D1F1843409F452C00895413059F42AB39E
:1001A00081E090E002C0880F991F6A95E2F7822BE8
:1001B0008ABB089541115CC02AB381E090E002C07F
:1001C000880F991F6A95E2F7809582238ABB08956C
:1001D000413059F427B381E090E002C0880F991FA5
:1001E0006A95E2F7822B87BB0895411141C027B37E
:1001F00081E090E002C0880F991F6A95E2F7809530
:10020000822387BB0895413059F424B381E090E004
:1002100002C0880F991F6A95E2F7822B84BB08956C
:10022000411126C024B381E090E002C0880F991FDD
:100230006A95E2F78095822384BB0895413059F492
:1002400021B381E090E002C0880F991F6A95E2F720
:10025000822B81BB089541110BC021B381E090E056
:1002600002C0880F991F6A95E2F78095822381BBAF
:100270000895823429F118F4813439F008958334D3
:10028000D1F1843409F452C00895413059F42BB3AC
:1002900081E090E002C0880F991F6A95E2F7822BF7
:1002A0008BBB089541115CC02BB381E090E002C08C
:1002B000880F991F6A95E2F7809582238BBB08957A
:1002C000413059F428B381E090E002C0880F991FB3
:1002D0006A95E2F7822B88BB0895411141C028B38B
:1002E00081E090E002C0880F991F6A95E2F780953F
:1002F000822388BB0895413059F425B381E090E012
:1003000002C0880F991F6A95E2F7822B85BB08957A
:10031000411126C025B381E090E002C0880F991FEB
:100320006A95E2F78095822385BB0895413059F4A0
:1003300022B381E090E002C0880F991F6A95E2F72E
:10034000822B82BB089541110BC022B381E090E063
:1003500002C0880F991F6A95E2F78095822382BBBD
:1003600008958FB780688FBF0895863029F0873051
:10037000A9F0853081F524C0623039F485B78260F8
:1003800085BF85B7816085BF0895613021F585B748
:10039000826085BF85B78E7F85BF0895623039F44E
:1003A00085B7886085BF85B7846085BF0895613053
:1003B00091F485B7886085BF85B78B7F85BF089529
:1003C000613021F484B7806484BF0895611103C053
:1003D00084B78B7F84BF0895863039F48BB78064EF
:1003E0008BBF8AB780648ABF0895873021F48BB7AA
:1003F00080688BBF0895853019F48BB780628BBFFE
:100400000895CF93DF93C82FD62F0E94B1016D2F8F
:100410008C2F0E94B5018C2F0E94EC01DF91CF91AF
:10042000089590936A008093690008951F920F9237
:100430000FB60F9211242F933F934F935F936F93B7
:100440007F938F939F93AF93BF93EF93FF93E0912D
:100450006900F0916A00309709F00995FF91EF91DA
:10046000BF91AF919F918F917F916F915F914F91CC
:100470003F912F910F900FBE0F901F9018951F92D4
:100480000F920FB60F9211242F933F934F935F93C8
:100490006F937F938F939F93AF93BF93EF93FF934C
:1004A000E0916700F0916800309709F00995FF919D
:1004B000EF91BF91AF919F918F917F916F915F91DC
:1004C0004F913F912F910F900FBE0F901F90189555
:1004D0001F920F920FB60F9211242F933F934F93B9
:1004E0005F936F937F938F939F93AF93BF93EF939C
:1004F000FF93E0916500F0916600309709F009954F
:10050000FF91EF91BF91AF919F918F917F916F91EB
:100510005F914F913F912F910F900FBE0F901F90C1
:1005200018951F920F920FB60F9211242F933F939D
:100530004F935F936F937F938F939F93AF93BF93EB
:10054000EF93FF93E0916300F0916400309709F01E
:100550000995FF91EF91BF91AF919F918F917F91FD
:100560006F915F914F913F912F910F900FBE0F9020
:100570001F9018951F920F920FB60F9211242F9370
:100580003F934F935F936F937F938F939F93AF931B
:10059000BF93EF93FF93E0916100F0916200309779
:1005A00009F00995FF91EF91BF91AF919F918F91C4
:1005B0007F916F915F914F913F912F910F900FBE5F
:1005C0000F901F901895EE0FFF1F0590F491E02DEE
:0605D0000994F894FFCF2E
:00000001FF
