:100000000C9432000C9444000C9444000C94440072
:100010000C9444000C9444000C9444000C94440050
:100020000C9444000C9444000C9444000C94440040
:100030000C9444000C9444000C9444000C94440030
:100040000C9444000C9444000C9444000C94440020
:100050000C944400850096009B00A000A500AA0017
:10006000AF00B40011241FBECFE5D8E0DEBFCDBF86
:1000700020E0A0E6B0E001C01D92A236B207E1F791
:100080000E94CC000C9463020C94000060E081E4B8
:100090000E94C00061E081E40E94C00062E081E44F
:1000A0000E94C00063E081E40E94C00066E084E436
:1000B0000E94B900089541E650E066E084E40E94A1
:1000C000BD0006C041E650E066E084E40E94BD0049
:1000D000809161008823B1F380E991E00E943202AF
:1000E000809160008F5F80936000883011F41092DF
:1000F0006000E09160008E2F90E088309105C0F59F
:10010000FC01E65DFF4F0C945D0260E081E40E941B
:10011000C80061E081E40E94C80062E081E40E94BE
:10012000C80063E081E40E94C800089560E081E4B3
:100130000E94C400089561E081E40E94C400089513
:1001400062E081E40E94C400089563E081E40E94BB
:10015000C400089563E081E40E94C800089562E04D
:1001600081E40E94C800089561E081E40E94C80013
:10017000089540E00E94D10008950E94C1010895B1
:1001800041E00E94D100089541E00E944901089594
:1001900040E00E94490108950E9446000E945B00D1
:1001A000FDCF823429F118F4813439F00895833475
:1001B000D1F1843409F452C00895413059F42AB37E
:1001C00081E090E002C0880F991F6A95E2F7822BC8
:1001D0008ABB089541115CC02AB381E090E002C05F
:1001E000880F991F6A95E2F7809582238ABB08954C
:1001F000413059F427B381E090E002C0880F991F85
:100200006A95E2F7822B87BB0895411141C027B35D
:1002100081E090E002C0880F991F6A95E2F780950F
:10022000822387BB0895413059F424B381E090E0E4
:1002300002C0880F991F6A95E2F7822B84BB08954C
:10024000411126C024B381E090E002C0880F991FBD
:100250006A95E2F78095822384BB0895413059F472
:1002600021B381E090E002C0880F991F6A95E2F700
:10027000822B81BB089541110BC021B381E090E036
:1002800002C0880F991F6A95E2F78095822381BB8F
:100290000895823429F118F4813439F008958334B3
:1002A000D1F1843409F452C00895413059F42BB38C
:1002B00081E090E002C0880F991F6A95E2F7822BD7
:1002C0008BBB089541115CC02BB381E090E002C06C
:1002D000880F991F6A95E2F7809582238BBB08955A
:1002E000413059F428B381E090E002C0880F991F93
:1002F0006A95E2F7822B88BB0895411141C028B36B
:1003000081E090E002C0880F991F6A95E2F780951E
:10031000822388BB0895413059F425B381E090E0F1
:1003200002C0880F991F6A95E2F7822B85BB08955A
:10033000411126C025B381E090E002C0880F991FCB
:100340006A95E2F78095822385BB0895413059F480
:1003500022B381E090E002C0880F991F6A95E2F70E
:10036000822B82BB089541110BC022B381E090E043
:1003700002C0880F991F6A95E2F78095822382BB9D
:100380000895823401F118F4813439F008958334EA
:1003900081F1843409F443C0089579B381E090E099
:1003A0009C01062E02C0220F331F0A94E2F7872F0A
:1003B00090E08223932302C0959587956A95E2F792
:1003C000FA018083089576B381E090E09C01062EC7
:1003D00002C0220F331F0A94E2F7872F90E0822396
:1003E000932302C0959587956A95E2F7FA01808379
:1003F000089573B381E090E09C01062E02C0220FA5
:10040000331F0A94E2F7872F90E08223932302C0E0
:10041000959587956A95E2F7FA018083089570B300
:1004200081E090E09C01062E02C0220F331F0A9447
:10043000E2F7872F90E08223932302C0959587955A
:100440006A95E2F7FA018083089595B5892385BD01
:1004500064BD089595B5892B85BD089584BD089523
:1004600015BC0895EF92FF920F931F93CF937C01D9
:1004700067E087EB0E94250282E00E942A0200E0EA
:1004800010E010C008B606FEFDCF87E00E942E02E5
:1004900088B7806488BFCF5F01C0C0E0C43090F3EC
:1004A0000F5F1F4F0E151F05C0F30E943002CF9142
:1004B0001F910F91FF90EF900895EE0FFF1F059091
:0A04C000F491E02D0994F894FFCFA9
:00000001FF
