S01900004C45442073657175656E63652056332E302E73726563B6
S11300000C9432000C948B010C94B4010C94DD011B
S11300100C944F000C944F000C944F000C944F0020
S11300200C944F000C944F000C9406020C942F0275
S11300300C944F000C944F000C944F000C944F0000
S11300400C944F000C944F000C944F000C944F00F0
S11300500C944F00750282028F029C02A902B60220
S1130060C302D00211241FBECFE5D8E0DEBFCDBF4E
S113007010E0A0E6B0E0E6E4FBE002C005900D92DB
S1130080AA36B107D9F720E0AAE6B0E001C01D9274
S1130090AE37B207E1F70E949F000C94A1050C94BF
S11300A0000080916B00873020F48F5F80936B0099
S11300B0089510926B00089580916B00843030F4A1
S11300C080916A008F5F80936A00089510926A009D
S11300D0089562E084E40E949B0063E084E40E944B
S11300E09B0062E086E00E946C0162E087E00E946F
S11300F06C0181E590E00E947C018CE590E00E9417
S113010081010E94FD020895E0916A00F0E0EE0F83
S1130110FF1FE05AFF4F80810E941A03E0916A009A
S1130120F0E0EE0FFF1FE05AFF4F60916B008081FB
S11301300E948703F3CF40E00E94A40008950E9428
S113014069000E948400FDCF823429F118F48134BF
S113015039F008958334D1F1843409F452C00895F8
S1130160413059F42AB381E090E002C0880F991F0E
S11301706A95E2F7822B8ABB089541115CC02AB3C9
S113018081E090E002C0880F991F6A95E2F780959C
S113019082238ABB0895413059F427B381E090E06B
S11301A002C0880F991F6A95E2F7822B87BB0895D6
S11301B0411141C027B381E090E002C0880F991F2C
S11301C06A95E2F78095822387BB0895413059F4FC
S11301D024B381E090E002C0880F991F6A95E2F78A
S11301E0822B84BB0895411126C024B381E090E0A2
S11301F002C0880F991F6A95E2F78095822384BB19
S11302000895413059F421B381E090E002C0880F91
S1130210991F6A95E2F7822B81BB089541110BC0A7
S113022021B381E090E002C0880F991F6A95E2F73C
S11302308095822381BB08958FB780688FBF08950E
S1130240863029F08730A9F0853081F524C06230EA
S113025039F485B7826085BF85B7816085BF08950D
S1130260613021F585B7826085BF85B78E7F85BFF4
S11302700895623039F485B7886085BF85B7846096
S113028085BF0895613091F485B7886085BF85B7CF
S11302908B7F85BF0895613021F484B7806484BF67
S11302A00895611103C084B78B7F84BF089586309D
S11302B039F48BB780648BBF8AB780648ABF089592
S11302C0873021F48BB780688BBF0895853019F48B
S11302D08BB780628BBF0895CF93DF93C82FD62F3F
S11302E00E941C016D2F8C2F0E9420018C2F0E94D4
S11302F05701DF91CF910895909375008093740016
S113030008959093730080937200089590936D0004
S113031080936C0008951F920F920FB60F921124D0
S11303202F933F934F935F936F937F938F939F93F9
S1130330AF93BF93EF93FF93E0917400F091750036
S1130340309709F00995FF91EF91BF91AF919F917B
S11303508F917F916F915F914F913F912F910F906A
S11303600FBE0F901F9018951F920F920FB60F9209
S113037011242F933F934F935F936F937F938F93A6
S11303809F93AF93BF93EF93FF93E0917200F0912B
S11303907300309709F00995FF91EF91BF91AF91E8
S11303A09F918F917F916F915F914F913F912F9189
S11303B00F900FBE0F901F9018951F920F920FB6BB
S11303C00F9211242F933F934F935F936F937F93D7
S11303D08F939F93AF93BF93EF93FF93E09170003C
S11303E0F0917100309709F00995FF91EF91BF9159
S11303F0AF919F918F917F916F915F914F913F91B9
S11304002F910F900FBE0F901F9018951F920F926F
S11304100FB60F9211242F933F934F935F936F93D3
S11304207F938F939F93AF93BF93EF93FF93E09149
S11304306E00F0916F00309709F00995FF91EF91EC
S1130440BF91AF919F918F917F916F915F914F91E8
S11304503F912F910F900FBE0F901F9018951F92F0
S11304600F920FB60F9211242F933F934F935F93E4
S11304706F937F938F939F93AF93BF93EF93FF9368
S1130480E0916C00F0916D00309709F00995FF91AF
S1130490EF91BF91AF919F918F917F916F915F91F8
S11304A04F913F912F910F900FBE0F901F90189571
S11304B080917600909177000196909377008093D5
S11304C0760020917800309179008217930709F023
S11304D074C0E0917C00F0917D00E830F10508F0F3
S11304E089C0E65DFF4F0C948C058BB38E7F8BBB6C
S11304F08BB38D7F8BBB8BB38B7F8BBB8BB3877F96
S11305008BBB78C08BB381608BBB8BB38D7F8BBB74
S11305108BB38B7F8BBB8BB3877F8BBB6BC08BB356
S113052081608BBB8BB382608BBB8BB38B7F8BBBAC
S11305308BB3877F8BBB5EC08BB381608BBB8BB36C
S113054082608BBB8BB384608BBB8BB3877F8BBB8D
S113055051C08BB381608BBB8BB382608BBB8BB37D
S113056084608BBB8BB388608BBB44C08BB38E7FA2
S11305708BBB8BB382608BBB8BB384608BBB8BB325
S113058088608BBB37C08BB38E7F8BBB8BB38D7F67
S11305908BBB8BB384608BBB8BB388608BBB2AC053
S11305A08BB38E7F8BBB8BB38D7F8BBB8BB38B7FDE
S11305B08BBB8BB388608BBB1DC04091780050917E
S11305C0790020917A0030917B00240F351F821727
S11305D0930781F48BB38E7F8BBB8BB38D7F8BBBE7
S11305E08BB38B7F8BBB8BB3877F8BBB10927700D6
S11305F01092760086E082BF08958AB381608ABB38
S11306008AB382608ABB8AB384608ABB8AB38860F7
S11306108ABB83B713BE83B783BF8FB780688FBF8E
S113062089B7816089BF86E082BF88E592E00E9435
S113063086010895CF93C82F682F70E080E090E082
S11306400E94910420E030E048EC52E40E94F00360
S113065020E030E04AE754E40E941F0520E030E047
S11306604AE754E40E941F050E9462049B013695E8
S11306702795A3E1B3E80E9492050024880F991FEF
S1130680001C880F991F001C892F902D90937B00CC
S113069080937A0064E670E06C1B7109072E000CED
S11306A0880B990B0E94930420E030E048EC52E45C
S11306B00E94F00320E030E04AE754E40E941F0562
S11306C020E030E04AE754E40E941F050E946204DF
S11306D09B0136952795A3E1B3E80E949205002477
S11306E0880F991F001C880F991F001C892F902DBB
S11306F0909379008093780010927700109276009E
S113070086E082BF83B7826083BFCF910895CF9381
S1130710C82F70E070937D0060937C00682F70E0B8
S113072080E090E00E94910420E030E048EC52E444
S11307300E94F00320E030E04AE754E40E941F05E1
S113074020E030E04AE754E40E941F050E9462045E
S11307509B0136952795A3E1B3E80E9492050024F6
S1130760880F991F001C880F991F001C892F902D3A
S113077090937B0080937A0064E670E06C1B7109AF
S1130780072E000C880B990B0E94930420E030E0A4
S113079048EC52E40E94F00320E030E04AE754E4DD
S11307A00E941F0520E030E04AE754E40E941F0540
S11307B00E9462049B0136952795A3E1B3E80E9449
S11307C092050024880F991F001C880F991F001C94
S11307D0892F902D9093790080937800CF9108957C
S11307E00E9404040C94E5040E94DE0458F00E9464
S11307F0D70440F029F45F3F29F00C94CE04511142
S11308000C9419050C94D4040E94F60468F39923FB
S1130810B1F3552391F3951B550BBB27AA276217F8
S11308207307840738F09F5F5F4F220F331F441F05
S1130830AA1FA9F335D00E2E3AF0E0E832D0915039
S11308405040E695001CCAF72BD0FE2F29D0660F26
S1130850771F881FBB1F261737074807AB07B0E869
S113086009F0BB0B802DBF01FF2793585F4F3AF06F
S11308709E3F510578F00C94CE040C9419055F3F0B
S1130880E4F3983ED4F3869577956795B795F795F5
S11308909F5FC9F7880F911D9695879597F90895DD
S11308A0E1E0660F771F881FBB1F62177307840779
S11308B0BA0720F0621B730B840BBA0BEE1F88F788
S11308C0E09508950E94FE0488F09F5798F0B92F90
S11308D09927B751B0F0E1F0660F771F881F991F71
S11308E01AF0BA95C9F714C0B13091F00E941805F6
S11308F0B1E008950C941805672F782F8827B85F06
S113090039F0B93FCCF3869577956795B395D9F7C8
S11309103EF490958095709561957F4F8F4F9F4FD2
S11309200895E89409C097FB3EF4909580957095DE
S113093061957F4F8F4F9F4F9923A9F0F92F96E927
S1130940BB279395F695879577956795B795F1119C
S1130950F8CFFAF4BB0F11F460FF1BC06F5F7F4F39
S11309608F4F9F4F16C0882311F096E911C077234B
S113097021F09EE8872F762F05C0662371F096E854
S1130980862F70E060E02AF09A95660F771F881F23
S1130990DAF7880F9695879597F9089597F99F67E1
S11309A080E870E060E008959FEF80EC08950024F3
S11309B00A941616170618060906089500240A94C0
S11309C012161306140605060895092E0394000C46
S11309D011F4882352F0BB0F40F4BF2B11F460FFD5
S11309E004C06F5F7F4F8F4F9F4F089557FD9058FE
S11309F0440F551F59F05F3F71F04795880F97FBDF
S1130A00991F61F09F3F79F0879508951216130698
S1130A101406551FF2CF4695F1DF08C016161706C7
S1130A201806991FF1CF86957105610508940895FC
S1130A30E894BB2766277727CB0197F908950E948E
S1130A4032050C94E5040E94D70438F00E94DE04B9
S1130A5020F0952311F00C94CE040C94D4041124AA
S1130A600C9419050E94F60470F3959FC1F3950F39
S1130A7050E0551F629FF001729FBB27F00DB11D1E
S1130A80639FAA27F00DB11DAA1F649F6627B00DAE
S1130A90A11D661F829F2227B00DA11D621F739F97
S1130AA0B00DA11D621F839FA00D611D221F749FA5
S1130AB03327A00D611D231F849F600D211D822FEC
S1130AC0762F6A2F11249F5750409AF0F1F0882313
S1130AD04AF0EE0FFF1FBB1F661F771F881F915040
S1130AE05040A9F79E3F510580F00C94CE040C941D
S1130AF019055F3FE4F3983ED4F38695779567959F
S1130B00B795F795E7959F5FC1F7FE2B880F911D69
S1130B109695879597F90895EE0FFF1F0590F49128
S1130B20E02D0994A29FB001B39FC001A39F700D53
S1130B30811D1124911DB29F700D811D1124911DE1
S1090B400895F894FFCFB4
S10D0B460A0014001E0032005000E3
S9030000FC
